:100000000C946C000C94D2050C9489000C9489001B
:100010000C9489000C9489000C9489000C9489003C
:100020000C9489000C9489000C9489000C945D0256
:100030000C9489000C9489000C9489000C9489001C
:100040000C9489000C9489000C9489000C9489000C
:100050000C9489000C9489000C9489000C948900FC
:100060000C9489000C94890009021200010100809F
:100070003209040000000000000012011001FF001E
:100080000008501D61600001010200011C037000A6
:100090006F007700650072002D006D0061006E003A
:1000A00061006700650072002C037700770077001D
:1000B0002E0066006100620069006F00620061004E
:1000C0006C00740069006500720069002E00630016
:1000D0006F006D000403090411241FBECFEFD4E0AC
:1000E000DEBFCDBF11E0A0E0B1E0E8EAFFE002C072
:1000F00005900D92AE33B107D9F712E0AEE3B1E04F
:1001000001C01D92AA30B107E1F70E94FF060C94CE
:10011000D2070C940000CF93FC01C42F8281862368
:1001200061F183818623A9F061E0842F0E942F036F
:1001300061E08C2F0E94150321E030E00C2E01C0FD
:10014000220F0A94EAF780915601822B8093560180
:1001500014C060E0842F0E94150360E08C2F0E9481
:100160002F0321E030E001C0220FCA95EAF7209565
:1001700080915601282320935601CF9108950F9323
:100180001F93CF93DF9300D000D0CDB7DEB7498364
:100190005A836B837C830E94E0020E94E60387E51A
:1001A00092E00197F1F700C000000E94EA038C0181
:1001B000ACE4B4E049815A816B817C819A01AB0146
:1001C0000E9499079B01AC01D8010E9499077059C0
:1001D0008F4F9F4F20E030EE40E050E00E94A40798
:1001E000C9010F900F900F900F90DF91CF911F9149
:1001F0000F9108950F931F93CF93DF9300D000D0FA
:10020000CDB7DEB78C01FC018181813009F4CBC010
:1002100038F0823009F4CAC08F3F09F001C1ECC048
:1002200080E00E94EC0211E0811101C010E081E049
:100230000E94EC02882311F082E001C080E0182BBC
:100240001093570142E851E060E070E080E00E94C6
:10025000BF0090933F0180933E0142E851E060E08F
:1002600070E081E00E94BF009093410180934001C3
:1002700040E457E060E070E082E00E94BF009093AD
:1002800043018093420180E00E94D40262E00E9418
:100290007B0423E0959587952A95E1F7880F991FB0
:1002A000880F991F909345018093440181E00E943B
:1002B000D40262E00E947B0443E0959587954A95BD
:1002C000E1F7880F991F880F991F9093470180933A
:1002D000460182E00E94D40262E00E947B0463E057
:1002E000959587956A95E1F7880F991F880F991F53
:1002F000909349018093480180E00E94D40264E019
:100300000E947B0490934B0180934A0181E00E94FC
:10031000D40264E00E947B0490934D0180934C01D1
:1003200082E00E94D40264E00E947B0490934F011B
:1003300080934E0180E00E94D40263E00E947B041F
:1003400014E19C01129FC001139F900D1124909302
:1003500051018093500181E00E94D40263E00E9429
:100360007B04FC011E9FC0011F9F900D11249093E0
:1003700053018093520182E00E94D40263E00E9404
:100380007B049C01129FC001139F900D1124909338
:100390005501809354018EE391E09093EF01809397
:1003A000EE018AE13EC00E94D1033AC00E947F0361
:1003B00081110CC02091DE013091DF01F8018281B2
:1003C0009381820F931F9A8389830CC00E948203BA
:1003D000F80122813381FC0180819181280F391F2E
:1003E0003A832983F80185818B8384818C83CE01B4
:1003F00001960E94A90314C088E10FB6F894809377
:100400006000109260000FBE28E088E190E00FB617
:10041000F894A895809360000FBE20936000FFCFF2
:1004200080E00F900F900F900F90DF91CF911F9170
:100430000F91089580E00E94D4024FE959E360E0F3
:100440000E949B0480E00E94D40249E951E065E0EB
:100450000E949B0481E00E94D4024FE959E360E0CE
:100460000E949B0481E00E94D40249E951E065E0CA
:100470000E949B0482E00E94D4024FE959E360E0AD
:100480000E949B0482E00E94D40243E353E065E0B3
:100490000C949B041092DF011092DE0182E08093A5
:1004A0006F00109280008BE08093810083E597E0DD
:1004B000909389008093880008951F920F920FB641
:1004C0000F9211248F939F938091DE019091DF0111
:1004D00001969093DF018093DE019F918F910F90A1
:1004E0000FBE0F901F901895813079F018F0823070
:1004F00009F516C024B181E090E0062E01C0880FF6
:100500000A94EAF7282B24B9089527B181E090E0F6
:10051000062E01C0880F0A94EAF7282B27B9089500
:100520002AB181E090E0062E01C0880F0A94EAF714
:10053000282B2AB908958130A9F018F0823099F556
:1005400022C025B181E090E0062E01C0880F0A94F8
:10055000EAF7442319F0282B25B9089580958223C2
:1005600085B9089528B181E090E0062E01C0880F7A
:100570000A94EAF7442319F0282B28B908958095A6
:10058000822388B908952BB181E090E0062E01C046
:10059000880F0A94EAF7442319F0282B2BB9089501
:1005A000809582238BB90895853040F495E0899F2A
:1005B000F0011124EE5FFE4F8481089580E00895DC
:1005C000853040F495E0899FF0011124EE5FFE4FE5
:1005D0008381089580E00895853020F595E0899F16
:1005E000F0011124EE5FFE4F2181822F8F70833046
:1005F000C9F022952F70813031F018F0823071F4FB
:1006000004C083B103C086B101C089B190E002C0CB
:10061000959587952A95E2F7817001C080E091E079
:10062000982701C090E0892F0895462F8530B0F4B7
:1006300095E0899FF0011124EE5FFE4F808187FFD6
:1006400004C081E0611180E0482F8081682F6695A9
:10065000669566956F7087700C949B020895462F7F
:10066000853068F495E0899FF0011124EE5FFE4F1C
:100670008281682F62956F708F700C949B02089531
:10068000FF920F931F93CF93DF93C0E0D0E085E0FC
:10069000F82EFC9E8001FD9E100D11240E5F1E4F52
:1006A000F8018081682F6695669566956F708770F2
:1006B0000E94740260E08C2F0E941503F801828171
:1006C000682F62956F708F700E94740260E08C2FAB
:1006D0000E942F03F8016181862F8F70833029F0EB
:1006E00062956F7041E00E949B022196C530D10552
:1006F00081F6DF91CF911F910F91FF900895809126
:10070000DC0108952091DB0184E0289F90011124F1
:10071000265A3E4FC90108952091DA0184E0289FAE
:1007200090011124265A3E4FC90108952091DC0101
:10073000222369F08091DA0190E001968F71992768
:100740008093DA0121502093DC0180E008958FEF3F
:100750000895CF93DF934091DC014032F1F0209176
:10076000DB0130E02F5F3F4F2F7133272093DB01F8
:100770004F5F4093DC01F901EE0FFF1FEE0FFF1FEB
:10078000E65AFE4FEC0188819981AA81BB81808362
:100790009183A283B38380E001C08FEFDF91CF917B
:1007A000089583E8EAE5F1E0DF011D928A95E9F713
:1007B0008FE18093DB01089587E980937A0080ECD4
:1007C00080937C00089510927A000895806C809345
:1007D0007C00089580917A00806480937A008091F3
:1007E0007A0086FDFCCF2091780030917900C90114
:1007F00008950F9394EA9093BC009091BC0097FFEA
:10080000FCCF9091B900987F983009F06EC0982F76
:10081000990F9093BB0094E89093BC009091BC001A
:1008200097FFFCCF9091B900987F983109F05DC097
:10083000FB0154E80FC091919093BB005093BC0012
:100840009091BC0097FFFCCF9091B900987F9832AF
:1008500009F04BC09E2F961B941768F3011105C039
:1008600084E98093BC0080E044C094EA9093BC008B
:100870009091BC0097FFFCCF9091B900987F903188
:10088000A1F590E0880F991F81608093BB0084E8F8
:100890008093BC008091BC0087FFFCCF8091B900A1
:1008A000887F803411F5F90181E090E0402F50E01D
:1008B00064E874EC15C0841795071CF47093BC00B1
:1008C00002C06093BC003091BC0037FFFCCF309178
:1008D000BB0031933091B9000196387F303529F44F
:1008E0003E2F321B301738F3BBCF84E98093BC0016
:1008F0008FEF0F9108950F93CF93DF9300D01F9246
:10090000CDB7DEB76B8302E09E012F5F3F4F41E022
:10091000BE016D5F7F4F0E94F903998180E02A81BB
:10092000AC01422B9A01C9010F900F900F90DF91FB
:10093000CF910F9108950F93CF93DF9300D01F9223
:10094000CDB7DEB769835A834B8300E020E030E007
:1009500043E0BE016F5F7F4F0E94F9030F900F903D
:100960000F90DF91CF910F9108959B01AC0160E052
:100970007BE187EB90E00E94A407205131094109F7
:10098000510956954795379527952093B80084E0EF
:100990008093BC000895CF93DF938091F001835042
:1009A00087FD88C09091ED012091EC012D3209F076
:1009B0007FC0883009F07CC0CCE0D0E0C91BD109F1
:1009C000CC50DE4F83EC8093E0018AE580931B01DD
:1009D0001092DD018881807621F0CE010E94FA001C
:1009E0005EC09A811092E9018981811106C010923E
:1009F000EA0129EE31E082E04EC0853019F490938F
:100A0000F1013DC08630A9F58B81813019F48AE768
:100A100090E004C0823041F488E690E09093EF01CA
:100A20008093EE0182E121C08330F1F4911108C07E
:100A300084ED90E09093EF018093EE0184E015C087
:100A4000913041F488EA90E09093EF018093EE01B9
:100A50008CE20BC0923041F48CE890E09093EF016F
:100A60008093EE018CE101C080E090E49093DD0181
:100A700016C0883069F0893029F49093F30129EE8B
:100A800031E004C029EE31E08A3021F080E003C07B
:100A900023EF31E081E03093EF012093EE019F815D
:100AA000911104C09E81981708F4892F80931C012E
:100AB0001092F00180911B0184FF47C080911C01BE
:100AC0008F3F09F442C0C82F893008F0C8E08C1B62
:100AD00080931C018091E00198E889278093E001D0
:100AE000CC2331F12091EE013091EF018091DD01B5
:100AF00086FF0BC0F901A1EEB1E08C2F8A0F949113
:100B00009D9331968A13FBCF09C0D901E1EEF1E044
:100B10008C2F8E0F9D9191938E13FCCF8C2F815033
:100B200090E00196820F931F9093EF018093EE0166
:100B30006C2F81EE91E00E94CE05CC5FCC3019F095
:100B40008FEF80931C01C0931B0184E199B19670D3
:100B500031F48150D9F71092F1011092EB01DF913D
:100B6000CF910895E9E6F0E0808182608083E89A81
:100B70000895A82FB92F80E090E041E050EA6095F9
:100B800030E009C02D9182279795879510F0842732
:100B90009527305EC8F36F5FA8F30895EADF8D9361
:100BA0009D930895CF93CFB7CF93C395499BE9F712
:100BB000499B09C0499B07C0499B05C0499B03C08D
:100BC000499B01C0A1C0DF93C091ED01DD27CC504E
:100BD000DE4F499B02C0DF91EBCF2F930F931F9302
:100BE00009B12FEF01FB20F94F933F9319B14FEF5C
:100BF000012701FB21F93BE031C04E7F012F19B1E4
:100C0000216028C0102F4D7F2260000009B129C04B
:100C10004B7F2460012F000019B12BC019B1477F11
:100C200028602AC04F7E09B120612CC04F7D19B1C8
:100C300020622FC04F7B09B1206432C0422709B126
:100C400049934FEF0000102711FB20F919B11670DE
:100C5000C9F1297F91F2012701FB21F909B1237F15
:100C600089F2315058F1102711FB22F919B1277E72
:100C700079F2012701FB23F92F7C81F209B11027BA
:100C800011FB24F92F7971F200C019B1012701FB82
:100C900025F92F7359F200C009B1102711FB26F96D
:100CA000223040F200C019B1012701FB27F924309E
:100CB00028F64F77206819B10000F9CF11E01CBB6E
:100CC000002717C03B503195C31BD04011E01CBB1F
:100CD0000881033CE9F00B34D9F02091EB01198134
:100CE000110F1213EDCF093641F10D3211F0013E13
:100CF00039F70093F2013F914F911F910F912F917E
:100D0000DF91CCB3C0FD51CFCF91CFBFCF9118951C
:100D10002091F201222379F31091F001112311F5B2
:100D2000343012F13093F0012093EC011091ED0179
:100D30003BE0311B3093ED0117C00091F001013011
:100D40008CF40AE530911B0134FD10C000931B01A7
:100D5000C0EED1E00FC02795A8F45150A9F4220F9E
:100D60000000F9CF4AE503C042ED01C0432FC4E1C2
:100D7000D0E032E01AB11660599A1AB90BB120E4EA
:100D800016E05F93012756E00BB9279520F45150E8
:100D900021F4220FF9CF012756E000003B5A0BB98E
:100DA000D0F2279528F4515029F4220F0000F9CFF2
:100DB000012756E027950BB920F4515021F4220F5A
:100DC000F9CF012756E0299133230BB921F6097F8A
:100DD0001091F101110FC651D0400BB911F01093D1
:100DE000EB0111E01CBB02601AB1197F402F497F53
:100DF0005F9100C000C00BB91AB94BB97CCF249ADF
:100E0000259A0E94DC0360E87AE186E090E00E9487
:100E1000B5040E941A020E9440030E94D1032EE0F2
:100E200088E190E00FB6F894A895809360000FBE1B
:100E30002093600088E030E120E295B1932795B9D6
:100E400095B1922795B94FEB54ED91E04150504048
:100E50009040E1F700C00000815079F72C9A2D985E
:100E60000E944A020E94B205519A80E007C0A895EC
:100E7000E7EBFBE03197F1F700C000008150B9F7D4
:100E800051987894A8950E94CB040E947F038823F0
:100E900091F02C982091DE013091DF018091580172
:100EA00090915901821B930B1816190614F42D9872
:100EB0003BC02D9A39C02C9A2D988091DE019091DB
:100EC000DF012EC00E948C03EC012091DE013091E5
:100ED000DF0188819981821B930B1816190694F201
:100EE00040E061E0CE010E948B0041E062E0CE0173
:100EF0000E948B0042E064E0CE010E948B0043E040
:100F000068E0CE010E948B0044E060E1CE010E94C7
:100F10008B000E9496038091DE019091DF0105967F
:100F200090935901809358010E947F038111CACF89
:100F3000A9CF0E94C607A59F900DB49F900DA49FB6
:100F4000800D911D11240895A1E21A2EAA1BBB1B2E
:100F5000FD010DC0AA1FBB1FEE1FFF1FA217B30785
:100F6000E407F50720F0A21BB30BE40BF50B661F9B
:100F7000771F881F991F1A9469F76095709580955F
:100F800090959B01AC01BD01CF010895A29FB001D6
:100F9000B39FC001A39F01D0B29F700D811D11248A
:080FA000911D0895F894FFCFA4
:100FA8001F018252110040A2322107413A03620612
:100FB80042080320FFFF000331FFFF5AFF330254AA
:100FC8006875204D61792033302032313A33333A15
:0E0FD800313020434553542032303133000075
:00000001FF
